:100000000C942A000C9434000C9434000C943400AA
:100010000C9434000C9434000C9434000C94340090
:100020000C9434000C9434000C9434000C94340080
:100030000C9434000C9434000C9434000C94340070
:100040000C9434000C9434000C9434000C94340060
:100050000C94340011241FBECFE5D8E0DEBFCDBF25
:100060000E946F000C9478000C940000662319F035
:10007000613089F00895813041F028F0823039F004
:10008000833039F008951ABA089517BA089514BA4A
:10009000089511BA0895813049F028F0823049F06E
:1000A000833051F008958FEF8ABB08958FEF87BB9F
:1000B00008958FEF84BB08958FEF81BB0895813041
:1000C00041F028F0823039F0833039F008956BBB6D
:1000D000089568BB089565BB089562BB089561E00B
:1000E00082E00E94360063E082E00E945F00FBCF66
:0400F000F894FFCFB2
:00000001FF
