S01500006174656D6761206761726167652E7372656319
S11300000C942A000C943C000C94E9030C943C00DE
S11300100C943C000C943C000C943C000C943C006C
S11300200C943C000C943C000C943C000C944B0449
S11300300C943C000C943C000C943C000C943C004C
S11300400C9472000C943C000C943C000C943C0006
S11300500C943C0011241FBECFE5D8E0DEBFCDBF19
S113006020E0A0E6B0E001C01D92AC36B207E1F793
S11300700E946E020C94B6040C940000813059F076
S113008018F0833079F014C087B18F7787B987B1BE
S11300908F7B87B90DC087B18F7787B987B18064AB
S11300A087B906C087B1806887B987B1806487B98A
S11300B086B1887F86B986B1682B66B986B18068B7
S11300C086B986B1886086B98FB780688FBF089576
S11300D097B1907E97B997B1892B87B986B180641F
S11300E086B908951F920F920FB60F9211242F9381
S11300F03F934F935F936F937F938F939F93AF93AC
S1130100BF93EF93FF9384B195B190936100809373
S1130110600082E00E94680080916000909161001C
S11301208935924030F041E061E081E00E94200195
S113013005C040E061E081E00E942001FF91EF9161
S1130140BF91AF919F918F917F916F915F914F91EB
S11301503F912F910F900FBE0F901F90189544233D
S113016019F04130C9F10895813091F028F08230BE
S1130170D9F0833029F108952AB381E090E002C0D8
S1130180880F991F6A95E2F7809582238ABB0895A8
S113019027B381E090E002C0880F991F6A95E2F7C7
S11301A08095822387BB089524B381E090E002C048
S11301B0880F991F6A95E2F78095822384BB08957E
S11301C021B381E090E002C0880F991F6A95E2F79D
S11301D08095822381BB0895813089F028F0823094
S11301E0C9F0833011F108952AB381E090E002C090
S11301F0880F991F6A95E2F7822B8ABB089527B36B
S113020081E090E002C0880F991F6A95E2F7822B83
S113021087BB089524B381E090E002C0880F991F42
S11302206A95E2F7822B84BB089521B381E090E0C4
S113023002C0880F991F6A95E2F7822B81BB08954B
S1130240442319F04130C9F10895813091F028F028
S11302508230D9F0833029F108952BB381E090E006
S113026002C0880F991F6A95E2F7809582238BBBA1
S1130270089528B381E090E002C0880F991F6A9521
S1130280E2F78095822388BB089525B381E090E04E
S113029002C0880F991F6A95E2F78095822385BB77
S11302A0089522B381E090E002C0880F991F6A95F7
S11302B0E2F78095822382BB0895813089F028F08B
S11302C08230C9F0833011F108952BB381E090E0BE
S11302D002C0880F991F6A95E2F7822B8BBB0895A1
S11302E028B381E090E002C0880F991F6A95E2F775
S11302F0822B88BB089525B381E090E002C0880F6B
S1130300991F6A95E2F7822B85BB089522B381E099
S113031090E002C0880F991F6A95E2F7822B82BB96
S113032008958130D1F028F0823059F18330E9F119
S113033050C049B381E090E09C01062E02C0220F18
S1130340331F0A94E2F7842F90E08223932302C0A0
S1130350959587956A95E2F7089546B381E090E014
S11303609C01062E02C0220F331F0A94E2F7842F49
S113037090E08223932302C0959587956A95E2F7CE
S1130380089543B381E090E09C01062E02C0220F41
S1130390331F0A94E2F7842F90E08223932302C050
S11303A0959587956A95E2F7089540B381E090E0CA
S11303B09C01062E02C0220F331F0A94E2F7842FF9
S11303C090E08223932302C0959587956A95E2F77E
S11303D0089580E00895813041F028F0823039F0AA
S11303E0833039F008956BBB089568BB089565BBED
S11303F0089562BB089541E063E081E00E9420011A
S113040089EF90E00197F1F700C0000040E063E05D
S113041081E00E94200189EF90E00197F1F700C08C
S113042000000895CF93C82F40E061E081E00E946E
S113043020016C2F607F80E00E94EB010E94FB0191
S11304406C2F6295607F80E00E94EB010E94FB01AB
S1130450CF91089541E063E081E00E94AF0041E064
S113046062E081E00E94AF0041E061E081E00E942F
S1130470AF0041E064E080E00E94AF0041E065E04D
S113048080E00E94AF0041E066E080E00E94AF009F
S113049041E067E080E00E94AF0040E062E081E07C
S11304A00E94200183ED90E30197F1F700C0000062
S11304B082E00E94120288E20E9412028CE00E94F2
S11304C0120281E00E94120289EF90E00197F1F795
S11304D000C0000086E00E94120208950E942A02D1
S11304E041E061E081E00E94AF0067E081E00E94AA
S11304F03E0082E00E94680040E064E083E00E94E5
S1130500AF0041E061E082E00E94AF0040E066E0BD
S113051083E00E94AF0041E060E080E00E94AF0011
S113052041E061E080E00E94AF0041E062E081E0F0
S11305300E94AF000E94CA0382E88FBD8AE18EBD8B
S113054081E999E097BD86BD1CB841E065E083E090
S11305500E94AF0041E063E080E00E94AF0041E010
S113056065E080E00E94AF0041E066E080E00E9428
S1130570AF00E12CF12C64E083E00E949101811131
S11305800FC01E141F047CF421E0E21AF10864E099
S113059083E00E9491018823D1F300E010E005C0BC
S11305A001E010E002C000E010E066E083E00E9499
S11305B09101811110C088E0E816F1047CF49FEFEA
S11305C0E91AF90A66E083E00E9491018823D1F3D5
S11305D0C0E0D0E005C0C1E0D0E002C0C0E0D0E09F
S11305E02097B1F441E061E082E00E94200188ECB0
S11305F090E09BBD8ABD2FE78AE196E021508040C0
S11306009040E1F700C0000001151105E9F320C096
S1130610012BA9F441E061E082E00E94200188EC12
S113062090E09BBD8ABD2FE78AE196E0215080408F
S11306309040E1F700C000002097F1F309C040E0CA
S113064061E082E00E9420018CE291E09BBD8ABDC2
S113065028E0E216F1045CF441E060E080E00E94EE
S1130660200140E061E080E00E9420010AC040E0F7
S113067060E080E00E94200141E061E080E00E94AF
S113068020018091680090916900A0916A00B09166
S11306906B000697A105B10508F058C041E062E07F
S11306A081E00E9420018091680090916900A091EE
S11306B06A00B0916B00AC01BD0141505109610960
S11306C07109443151056105710578F441E063E035
S11306D080E00E9420018FE996E821E0815090405B
S11306E02040E1F700C0000046CFAC01BD014551F8
S11306F0510961097109443151056105710578F4A5
S113070041E065E080E00E9420018FE996E821E065
S1130710815090402040E1F700C000002CCF899721
S1130720A109B1094497A105B10508F024CF41E01E
S113073066E080E00E9420018FE996E821E0815084
S113074090402040E1F700C0000015CF40E063E096
S113075080E00E94200140E065E080E00E942001EA
S113076040E066E080E00E94200140E062E081E039
S11307700E94200100CF13BE81E083BF12BE89B75F
S1130780816089BF089585B7846085BF8BB7806811
S11307908BBF089581B3816081BB81B3877F81BBA7
S11307A082B3886082BB0E94C3030E94BB03089586
S11307B08091670081110CC082B3816082BB85E0A7
S11307C08A95F1F782B38E7F82BB81E080936700C4
S11307D008951F920F920FB60F9211242F933F93F7
S11307E04F935F936F937F938F939F93AF93BF9335
S11307F0EF93FF93809167008130E1F5809166006B
S113080081110DC012BE81E08093660010926200D7
S11308101092630010926400109265002BC08091C6
S1130820620090916300A0916400B0916500BA2FBA
S1130830A92F982F882722B7BC01CD01620F711D03
S1130840811D911D22ED31E040E050E00E949404AE
S1130850209368003093690040936A0050936B00C2
S1130860109262001092630010926400109265006E
S113087010926600FF91EF91BF91AF919F918F917C
S11308807F916F915F914F913F912F910F900FBE88
S11308900F901F9018951F920F920FB60F9211246C
S11308A02F933F934F935F936F937F938F939F9374
S11308B0AF93BF93EF93FF93809162009091630095
S11308C0A0916400B09165000196A11DB11D8093B3
S11308D0620090936300A0936400B09365008B3D25
S11308E09240A105B10568F012BE10926700109203
S11308F066001092620010926300109264001092DD
S113090065000E94D803FF91EF91BF91AF919F9131
S11309108F917F916F915F914F913F912F910F90A4
S11309200FBE0F901F901895A1E21A2EAA1BBB1B95
S1130930FD010DC0AA1FBB1FEE1FFF1FA217B307A7
S1130940E407F50720F0A21BB30BE40BF50B661FBD
S1130950771F881F991F1A9469F760957095809581
S113096090959B01AC01BD01CF010895F894FFCF90
S9030000FC
