S01700004763634170706C69636174696F6E322E737265635A
S11300000C942A000C9447000C9447000C9447006D
S11300100C9447000C9447000C9447000C94470040
S11300200C9447000C9447000C9447000C94470030
S11300300C9447000C9447000C9447000C94470020
S11300400C9488000C9447000C9447000C944700CF
S11300500C94470011241FBECFE5D8E0DEBFCDBF0E
S113006010E0A0E6B0E0EEE3F8E002C005900D92E7
S1130070AA3BB107D9F720E0AAEBB0E001C01D927A
S1130080A23CB207E1F70E9454030C941D040C94A3
S11300900000813059F018F0833079F014C087B132
S11300A08F7787B987B18F7B87B90DC087B18F7779
S11300B087B987B1806487B906C087B1806887B97A
S11300C087B1806487B986B1887F86B986B1682B89
S11300D066B986B1886086B986B1806886B90895A4
S11300E097B1907E97B997B1892B87B986B180640F
S11300F086B93699FECF84B195B1089597B1907EB3
S113010097B997B1892B87B986B1806486B9089568
S11301101F920F920FB60F9211242F933F934F9378
S11301205F936F937F938F939F93AF93BF93EF935B
S1130130FF9384B195B19093BB008093BA0081E0A2
S11301400E947E00FF91EF91BF91AF919F918F919B
S11301507F916F915F914F913F912F910F900FBEBF
S11301600F901F901895442319F04130C9F1089558
S1130170813091F028F08230D9F0833029F108954C
S11301802AB381E090E002C0880F991F6A95E2F7D4
S1130190809582238ABB089527B381E090E002C052
S11301A0880F991F6A95E2F78095822387BB08958B
S11301B024B381E090E002C0880F991F6A95E2F7AA
S11301C08095822384BB089521B381E090E002C02E
S11301D0880F991F6A95E2F78095822381BB089561
S11301E0813089F028F08230C9F0833011F108950C
S11301F02AB381E090E002C0880F991F6A95E2F764
S1130200822B8ABB089527B381E090E002C0880F57
S1130210991F6A95E2F7822B87BB089524B381E086
S113022090E002C0880F991F6A95E2F7822B84BB85
S1130230089521B381E090E002C0880F991F6A9568
S1130240E2F7822B81BB0895442319F04130C9F1B0
S11302500895813091F028F08230D9F0833029F16B
S113026008952BB381E090E002C0880F991F6A952E
S1130270E2F7809582238BBB089528B381E090E058
S113028002C0880F991F6A95E2F78095822388BB84
S1130290089525B381E090E002C0880F991F6A9504
S11302A0E2F78095822385BB089522B381E090E034
S11302B002C0880F991F6A95E2F78095822382BB5A
S11302C00895813089F028F08230C9F0833011F12B
S11302D008952BB381E090E002C0880F991F6A95BE
S11302E0E2F7822B8BBB089528B381E090E002C033
S11302F0880F991F6A95E2F7822B88BB089525B36E
S113030081E090E002C0880F991F6A95E2F7822B82
S113031085BB089522B381E090E002C0880F991F45
S11303206A95E2F7822B82BB08958130D1F028F0E0
S1130330823059F18330E9F150C049B381E090E053
S11303409C01062E02C0220F331F0A94E2F7842F69
S113035090E08223932302C0959587956A95E2F7EE
S1130360089546B381E090E09C01062E02C0220F5E
S1130370331F0A94E2F7842F90E08223932302C070
S1130380959587956A95E2F7089543B381E090E0E7
S11303909C01062E02C0220F331F0A94E2F7842F19
S11303A090E08223932302C0959587956A95E2F79E
S11303B0089540B381E090E09C01062E02C0220F14
S11303C0331F0A94E2F7842F90E08223932302C020
S11303D0959587956A95E2F7089580E008958130B0
S11303E041F028F0823039F0833039F008956BBB46
S11303F0089568BB089565BB089562BB089541E004
S113040060E083E00E94B30041E061E083E00E9489
S1130410B30041E062E083E00E94B30041E063E0A6
S113042083E00E94B30040E064E081E00E94B300F6
S113043040E065E081E00E94B30040E066E081E0D6
S11304400E94B30040E067E081E00E94B30041E015
S113045064E081E00E94240141E065E081E00E94C3
S1130460240141E066E081E00E94240141E067E06C
S113047081E00E9424010895EF92FF920F931F934D
S1130480CF93DF93CDB7DEB760970FB6F894DEBF96
S11304900FBECDBF80E1E6E6F0E0DE0111960190EB
S11304A00D928A95E1F741E060E083E00E94240127
S11304B041E061E083E00E94240141E062E083E0E6
S11304C00E94240141E063E083E00E942401F12CB6
S11304D00F2EFAE7EF2EF02D2DC040E06F2D83E0B4
S11304E00E94240100E01EC014E0100F612F81E07F
S11304F00E949501811115C0EF2DF0E0EE0FFF1F52
S1130500EE0FFF1F81E090E08C0F9D1FE80FF91F95
S1130510E00FF11DE080612F81E00E9495018823A6
S1130520D1F30F5F043000F341E06F2D83E00E94AC
S11305302401F39493E09F1580F68E2D60960FB6F8
S1130540F894DEBF0FBECDBFDF91CF911F910F9105
S1130550FF90EF90089541E063E081E00E94240160
S113056089EF90E00197F1F700C0000040E063E0FC
S113057081E00E94240189EF90E00197F1F700C027
S113058000000895CF93C82F41E061E081E00E940C
S113059024016C2F607F82E00E94EF010E94AB0275
S11305A06C2F6295607F82E00E94EF010E94AB0293
S11305B0CF9108950E94C2020895CF93DF93EC0176
S11305C003C00E94DA02219688818111FACFDF915B
S11305D0CF910895CF93C82F40E061E081E00E945D
S11305E024016C2F607F82E00E94EF010E94AB0225
S11305F06C2F6295607F82E00E94EF010E94AB0243
S1130600CF91089541E063E081E00E94B30041E0AE
S113061062E081E00E94B30041E061E081E00E9479
S1130620B30041E064E082E00E94B30041E065E091
S113063082E00E94B30041E066E082E00E94B300E1
S113064041E067E082E00E94B30040E062E081E0C4
S11306500E94240183ED90E30197F1F700C00000AC
S113066082E00E94EA0288E20E94EA028CE00E9490
S1130670EA0281E00E94EA0289EF90E00197F1F733
S113068000C0000086E00E94EA020895811105C0BE
S113069080E8860F0E94EA020895813021F480ECFC
S11306A0860F0E94EA02089540E066E083E00E941B
S11306B0B30040E065E083E00E94B3000E940203BF
S11306C00E94FF0140E061E082E00E94B30041E04B
S11306D060E081E00E94B30067E081E00E9449008D
S11306E080E00E947E0086E790E00E94DD02C0E088
S11306F0D0E080E00E9470007C0181E00E94EA0268
S11307008CE790E00E94DD0260E081E00E944603F5
S11307108CE890E00E94DD022FE58AEE90E0215003
S113072080409040E1F700C0000061E082E00E9458
S11307309501813009F053C00E94EA028AE990E0F1
S11307400E94DD0210E00CC00E943C028A3741F096
S1130750E12FF0E0E454FF4F80830E94DA021F5F30
S1130760163090F381E00E94EA0280E090E040E0DD
S113077050E00DC0FC01E454FF4F3081FC01E05A0D
S1130780FF4F2081321711F04F5F5F4F0196863083
S1130790910584F3452B61F481E00E94EA0264E050
S11307A080E00E94460380EA90E00E94DD020BC0D4
S11307B081E00E94EA0265E080E00E94460389EA43
S11307C090E00E94DD022FE38DE093E02150804011
S11307D09040E1F700C0000081E00E94EA0281E05D
S11307E00E94EA0225EFE21621E0F20614F4C1E0C9
S11307F0D0E081E00E94EA0265E083E00E94950176
S113080018C066E083E00E949501813029F440E03D
S113081060E00E9424016BCF81EB90E00E94DD0236
S113082060E080E00E94460341E060E081E00E94D5
S11108302401C130D10529F35CCFF894FFCF29
S113083E3131313131313132334134353642373859
S113084E39432A30234468656C6C6F00486F6C64BE
S113085E2074686520627574746F6E00746F206501
S113086E6E746572207061737300706173733A00F5
S113087E6869206D6F6D656E00376172616D6D799B
S10D088E0079616C6168777900005D
S9030000FC
