:100000000C942A000C943C000C943C000C943C0092
:100010000C943C000C943C000C943C000C943C0070
:100020000C943C000C943C000C943C000C943C0060
:100030000C943C000C943C000C943C000C943C0050
:100040000C947A000C943C000C943C000C943C0002
:100050000C943C0011241FBECFE5D8E0DEBFCDBF1D
:1000600020E0A0E6B0E001C01D92A236B207E1F7A1
:100070000E9487010C94E8010C940000813059F033
:1000800018F0833079F014C087B18F7787B987B1C2
:100090008F7B87B90DC087B18F7787B987B18064AF
:1000A00087B906C087B1806887B987B1806487B98E
:1000B00086B1887F86B986B1682B66B986B18068BB
:1000C00086B9089597B1907E97B997B1892B87B972
:1000D00086B1806486B93699FECF84B195B1089512
:1000E00097B1907E97B997B1892B87B986B1806413
:1000F00086B908951F920F920FB60F9211242F9375
:100100003F934F935F936F937F938F939F93AF939F
:10011000BF93EF93FF9384B195B190936100809367
:10012000600082E00E947000FF91EF91BF91AF915B
:100130009F918F917F916F915F914F913F912F91FF
:100140000F900FBE0F901F901895442319F0413067
:10015000C9F10895813091F028F08230D9F08330D0
:1001600029F108952AB381E090E002C0880F991F19
:100170006A95E2F7809582238ABB089527B381E0D0
:1001800090E002C0880F991F6A95E2F7809582235C
:1001900087BB089524B381E090E002C0880F991FC7
:1001A0006A95E2F78095822384BB089521B381E0AC
:1001B00090E002C0880F991F6A95E2F7809582232C
:1001C00081BB0895813089F028F08230C9F08330F6
:1001D00011F108952AB381E090E002C0880F991FC1
:1001E0006A95E2F7822B8ABB089527B381E090E0FD
:1001F00002C0880F991F6A95E2F7822B87BB08958A
:1002000024B381E090E002C0880F991F6A95E2F75D
:10021000822B84BB089521B381E090E002C0880F57
:10022000991F6A95E2F7822B81BB0895442319F048
:100230004130C9F10895813091F028F08230D9F031
:10024000833029F108952BB381E090E002C0880F3C
:10025000991F6A95E2F7809582238BBB089528B396
:1002600081E090E002C0880F991F6A95E2F78095BF
:10027000822388BB089525B381E090E002C0880FF7
:10028000991F6A95E2F78095822385BB089522B372
:1002900081E090E002C0880F991F6A95E2F780958F
:1002A000822382BB0895813089F028F08230C9F022
:1002B000833011F108952BB381E090E002C0880FE4
:1002C000991F6A95E2F7822B8BBB089528B381E0D2
:1002D00090E002C0880F991F6A95E2F7822B88BBD5
:1002E000089525B381E090E002C0880F991F6A95B8
:1002F000E2F7822B85BB089522B381E090E002C033
:10030000880F991F6A95E2F7822B82BB089563E0FC
:1003100081E00E943E0041E066E083E00E94A5008B
:1003200041E065E083E00E94A50041E064E083E0F5
:100330000E94A50041E063E083E00E94A50080E008
:100340000E94700081E00E94700082E00E947000B4
:1003500080E00E9462008C0181E00E946200EC015A
:1003600082E00E946200833C914034F041E064E00E
:1003700083E00E94160105C040E064E083E00E9433
:1003800016010C32114034F441E065E083E00E9434
:10039000160105C040E065E083E00E941601C83503
:1003A000D2405CF441E066E083E00E94160140E048
:1003B00063E083E00E941601C2CF40E066E083E084
:1003C0000E94160141E063E083E00E941601B7CF6E
:0403D000F894FFCFCF
:00000001FF
