S00A000072782E7372656330
S11300000C942A000C9434000C9434000C943400A6
S11300100C9434000C9434000C9434000C9434008C
S11300200C9434000C9434000C9434000C9434007C
S11300300C9434000C9434000C9434000C9434006C
S11300400C9434000C9434000C9434000C9434005C
S11300500C94340011241FBECFE5D8E0DEBFCDBF21
S11300600E942D020C9497020C940000442319F072
S11300704130C9F10895813091F028F08230D9F0EF
S1130080833029F108952AB381E090E002C0880FFB
S1130090991F6A95E2F7809582238ABB089527B356
S11300A081E090E002C0880F991F6A95E2F780957D
S11300B0822387BB089524B381E090E002C0880FB7
S11300C0991F6A95E2F78095822384BB089521B332
S11300D081E090E002C0880F991F6A95E2F780954D
S11300E0822381BB0895813089F028F08230C9F0E1
S11300F0833011F108952AB381E090E002C0880FA3
S1130100991F6A95E2F7822B8ABB089527B381E091
S113011090E002C0880F991F6A95E2F7822B87BB93
S1130120089524B381E090E002C0880F991F6A9576
S1130130E2F7822B84BB089521B381E090E002C0F2
S1130140880F991F6A95E2F7822B81BB0895442397
S113015019F04130C9F10895813091F028F08230CE
S1130160D9F0833029F108952BB381E090E002C0E7
S1130170880F991F6A95E2F7809582238BBB0895B7
S113018028B381E090E002C0880F991F6A95E2F7D6
S11301908095822388BB089525B381E090E002C056
S11301A0880F991F6A95E2F78095822385BB08958D
S11301B022B381E090E002C0880F991F6A95E2F7AC
S11301C08095822382BB0895813089F028F08230A3
S11301D0C9F0833011F108952BB381E090E002C09F
S11301E0880F991F6A95E2F7822B8BBB089528B379
S11301F081E090E002C0880F991F6A95E2F7822B94
S113020088BB089525B381E090E002C0880F991F50
S11302106A95E2F7822B85BB089522B381E090E0D2
S113022002C0880F991F6A95E2F7822B82BB08955A
S1130230813041F028F0823039F0833039F008956C
S11302406BBB089568BB089565BB089562BB0895B0
S1130250813041F028F0823039F0833039F008C021
S113026089B3089586B3089583B3089580B3089538
S113027080E0089541E063E081E00E94A70089EFF7
S113028090E00197F1F700C0000040E063E081E0F6
S11302900E94A70089EF90E00197F1F700C00000E9
S11302A00895CF93C82F41E061E081E00E94A70048
S11302B06C2F607F83E00E9418010E943A016C2F2A
S11302C06295607F83E00E9418010E943A01CF91F9
S11302D008950E9451010895CF92DF92EF92FF9208
S11302E01F93CF93DF93CDB7DEB72A970FB6F89459
S11302F0DEBF0FBECDBF6B017C01611571058105A9
S1130300910521F480E30E9469013DC099235CF4C6
S1130310F094E094D094C094C11CD11CE11CF11C55
S11303208DE20E94690110E017C0C701B6012AE0FE
S113033030E040E050E00E945602605DE1E0F0E011
S1130340EC0FFD1FE10FF11D17FDFA956083C22E1E
S1130350D32EE42EF52E1F5F1C141D041E041F044F
S113036024F3FF24FA94F10E0CC0E1E0F0E0EC0F6A
S1130370FD1FEF0DF11DF7FCFA9580810E946901C4
S1130380FA94FF2094F72A960FB6F894DEBF0FBEB6
S1130390CDBFDF91CF911F91FF90EF90DF90CF9071
S11303A00895CF93C82F40E061E081E00E94A70048
S11303B06C2F607F83E00E9418010E943A016C2F29
S11303C06295607F83E00E9418010E943A01CF91F8
S11303D0089541E063E081E00E94360041E062E07C
S11303E081E00E94360041E061E081E00E94360035
S11303F041E064E083E00E94360041E065E083E090
S11304000E94360041E066E083E00E94360041E04D
S113041067E083E00E94360040E062E081E00E94F1
S1130420A70083ED90E30197F1F700C0000082E09C
S11304300E94D10188E20E94D1018CE00E94D10186
S113044081E00E94D10189EF90E00197F1F700C0AB
S1130450000086E00E94D10108950E94E90140E075
S113046060E080E00E94360040E061E080E00E94AD
S1130470360040E062E080E00E94360040E063E045
S113048080E00E94360080E00E942801682F70E01E
S113049080E090E00E946C018FE493EC0197F1F707
S11304A000C0000081E00E94D101EDCF052E97FB32
S11304B01EF400940E946D0257FD07D00E9475023D
S11304C007FC03D04EF40C946D0250954095309582
S11304D021953F4F4F4F5F4F0895909580957095AC
S11304E061957F4F8F4F9F4F0895A1E21A2EAA1B4B
S11304F0BB1BFD010DC0AA1FBB1FEE1FFF1FA217D0
S1130500B307E407F50720F0A21BB30BE40BF50BCC
S1130510661F771F881F991F1A9469F76095709555
S1130520809590959B01AC01BD01CF010895F8948D
S1050530FFCFF7
S9030000FC
