:100000000C942A000C943F000C943F000C943F0089
:100010000C943F000C943F000C943F000C943F0064
:100020000C943F000C943F000C943F000C943F0054
:100030000C943F000C943F000C943F000C943F0044
:100040000C943F000C943F000C943F000C943F0034
:100050000C943F0011241FBECFE5D8E0DEBFCDBF1A
:1000600010E0A0E6B0E0E8E2F6E002C005900D92F4
:10007000A23AB107D9F70E946B020C9412030C94B8
:100080000000442319F04130C9F10895813091F006
:1000900028F08230D9F0833029F108952AB381E025
:1000A00090E002C0880F991F6A95E2F7809582233D
:1000B0008ABB089527B381E090E002C0880F991FA2
:1000C0006A95E2F78095822387BB089524B381E087
:1000D00090E002C0880F991F6A95E2F7809582230D
:1000E00084BB089521B381E090E002C0880F991F7E
:1000F0006A95E2F78095822381BB0895813089F06B
:1001000028F08230C9F0833011F108952AB381E0DC
:1001100090E002C0880F991F6A95E2F7822B8ABB94
:10012000089527B381E090E002C0880F991F6A9577
:10013000E2F7822B87BB089524B381E090E002C0F0
:10014000880F991F6A95E2F7822B84BB089521B32B
:1001500081E090E002C0880F991F6A95E2F7822B38
:1001600081BB0895442319F04130C9F108958130CD
:1001700091F028F08230D9F0833029F108952BB323
:1001800081E090E002C0880F991F6A95E2F78095A0
:1001900082238BBB089528B381E090E002C0880FD2
:1001A000991F6A95E2F78095822388BB089525B34D
:1001B00081E090E002C0880F991F6A95E2F7809570
:1001C000822385BB089522B381E090E002C0880FAE
:1001D000991F6A95E2F78095822382BB089581304A
:1001E00089F028F08230C9F0833011F108952BB3E3
:1001F00081E090E002C0880F991F6A95E2F7822B98
:100200008BBB089528B381E090E002C0880F991F4E
:100210006A95E2F7822B88BB089525B381E090E0D0
:1002200002C0880F991F6A95E2F7822B85BB08955B
:1002300022B381E090E002C0880F991F6A95E2F72F
:10024000822B82BB08958130D1F028F0823059F1A1
:100250008330E9F150C049B381E090E09C01062E63
:1002600002C0220F331F0A94E2F7842F90E082230A
:10027000932302C0959587956A95E2F7089546B352
:1002800081E090E09C01062E02C0220F331F0A94E9
:10029000E2F7842F90E08223932302C095958795FF
:1002A0006A95E2F7089543B381E090E09C01062E41
:1002B00002C0220F331F0A94E2F7842F90E08223BA
:1002C000932302C0959587956A95E2F7089540B308
:1002D00081E090E09C01062E02C0220F331F0A9499
:1002E000E2F7842F90E08223932302C095958795AF
:1002F0006A95E2F7089580E00895813041F028F092
:10030000823039F0833039F008956BBB089568BBB3
:10031000089565BB089562BB089541E063E081E004
:100320000E94B2008FE99FE00197F1F700C0000042
:1003300040E063E081E00E94B2008FE99FE0019716
:10034000F1F700C000000895CF93C82F41E061E0AD
:1003500081E00E94B2006C2F607F80E00E947D01EE
:100360000E948D016C2F6295607F80E00E947D016C
:100370000E948D01CF9108950E94A4010895CF930A
:10038000DF93EC0103C00E94BC012196888181119A
:10039000FACFDF91CF910895CF93C82F40E061E06D
:1003A00081E00E94B2006C2F607F80E00E947D019E
:1003B0000E948D016C2F6295607F80E00E947D011C
:1003C0000E948D01CF91089541E063E081E00E9499
:1003D000410041E062E081E00E94410041E061E0D3
:1003E00081E00E94410041E064E080E00E94410021
:1003F00041E065E080E00E94410041E066E080E08D
:100400000E94410041E067E080E00E94410040E03E
:1004100062E081E00E94B2002FEF80E792E021507D
:1004200080409040E1F700C0000082E00E94CC01D3
:1004300088E20E94CC018CE00E94CC0181E00E9405
:10044000CC018FE99FE00197F1F700C0000086E042
:100450000E94CC010895811105C080E8860F0E949A
:10046000CC010895813021F480EC860F0E94CC01EC
:1004700008952AB128612AB920B5266820BDDC017B
:10048000CB01880F991FAA1FBB1F880F991FAA1F96
:10049000BB1F9C01AD01220F331F441F551F220FAC
:1004A000331F441F551F60E074E284EF90E00E9408
:1004B000F0028FEF820F89B9DA01C9010197A10912
:1004C000B109892F9A2FAB2FBB2780BD08955F9B61
:1004D000FECF8CB1089560E875E280E090E00E9464
:1004E000390241E064E081E00E94410040E065E0C3
:1004F00083E00E94410040E064E082E00E9441000D
:1005000040E065E082E00E94410040E066E082E079
:100510000E94410040E067E082E00E9441000E94AA
:10052000E4010E946702863649F441E064E081E01C
:100530000E94B20081E00E94CC01F3CF823649F4E0
:1005400040E064E081E00E94B20081E00E94CC01C2
:10055000E8CF81E00E94CC0165E083E00E942301A6
:10056000813021F480E690E00E94BF0164E082E0E7
:100570000E942301882341F060E081E00E942B0269
:1005800089E690E00E94BF0165E082E00E942301BD
:10059000882341F060E081E00E942B028AE790E02E
:1005A0000E94BF0166E082E00E942301882341F09F
:1005B00060E081E00E942B028BE890E00E94BF0186
:1005C00067E082E00E942301882309F4AACF6AE051
:1005D00080E00E942B028CE990E00E94BF01A1CF35
:1005E000A1E21A2EAA1BBB1BFD010DC0AA1FBB1F37
:1005F000EE1FFF1FA217B307E407F50720F0A21BA9
:10060000B30BE40BF50B661F771F881F991F1A9415
:1006100069F760957095809590959B01AC01BD013F
:08062000CF010895F894FFCF0B
:10062800696E747275646572006163636964656E8E
:1006380074203A20323020636D0061636369646519
:100648006E74203A20343020636D006163636964FE
:10065800656E74203A20363020636D0066697265D5
:02066800000090
:00000001FF
